:020000040000FA
:040000006DEF00F0B0
:060008005E8291EF1CF086
:100018005E80D8CF68F0E8CF69F0E0CF6AF0E1CF32
:100028006BF0E2CF6CF0D9CF6DF0DACF6EF0F3CF92
:100038006FF0F4CF70F0F6CF71F0F7CF72F0F8CF21
:1000480073F0F5CF74F00E0135A12DEF00F02FEF0E
:1000580000F051EF00F0270E0001626F0E0E636F83
:100068007BEC1DF00E0135910001E251D8B43FEF51
:1000780000F042EF00F0010E43EF00F0000EE26FD7
:10008800E251D8B44AEF00F04CEF00F051EF00F025
:10009800000E01019E6F000E9D6F74C0F5FF73C0C6
:1000A800F8FF72C0F7FF71C0F6FF70C0F4FF6FC0B1
:1000B800F3FF6EC0DAFF6DC0D9FF6CC0E2FF6BC002
:1000C800E1FF6AC0E0FF69C0E8FF68C0D8FF5E9042
:0600D8001000FAEF19F020
:100E00000020202020253032643A253032643A25F3
:100E10003032640020257320253032642F25303293
:100E2000642F253034640068656C6C6F000026C147
:100E3000D9FF27C1DAFFDECFD4F0DDCFD5F0030E26
:100E40000001D417000ED517D451D511D8B42BEF0B
:100E500007F02EEF07F0010E2FEF07F0000E010153
:100E60008A6F21EE72F0170EDE6AE806FDE2000ED0
:100E7000736F1F0E726F1C0E8A25746F756B000ED8
:100E80007523000E776F1F0E766F000E796F1E0EA2
:100E9000786F000E7B6F1F0E7A6F000E7D6F1E0E37
:100EA0007C6F000E7F6F1F0E7E6F000E816F1F0E16
:100EB000806F000E836F1E0E826F000E856F1F0EF7
:100EC000846F000E876F1E0E866F000E896F1F0ED7
:100ED000886F24C1D9FF25C1DAFFDECFD4F0DDCF82
:100EE000D5F0D8900001D437D537720ED425D96EFD
:100EF000010ED521DA6EDECF8BF1DDCF8CF124C16E
:100F0000D9FF25C1DAFF020EDE18DE10D8A48BEF60
:100F100007F08DEF07F0C7EF07F022C1D9FF23C11B
:100F2000DAFF010EDB5009E1180EDE5CD8A09BEF62
:100F300007F09DEF07F0C7EF07F020C1D9FF21C1EF
:100F4000DAFF060EDE18DE10D8A4A9EF07F0ABEF2B
:100F500007F0C7EF07F01EC1D9FF1FC1DAFFDE049B
:100F6000DE10D8A4B6EF07F0B8EF07F0C7EF07F030
:100F700028C1D9FF29C1DAFF010EDE6E000EDD6E39
:100F80001EC1D9FF1FC1DAFFDE2A000EDD2224C1F7
:100F9000D9FF25C1DAFF090EDE18DE10D8A4D3EF81
:100FA00007F0D5EF07F01DEF08F022C1D9FF23C1EC
:100FB000DAFF010EDB5009E1180EDE5CD8A0E3EF8A
:100FC00007F0E5EF07F01DEF08F020C1D9FF21C1C0
:100FD000DAFF060EDE18DE10D8A4F1EF07F0F3EF0B
:100FE00007F01DEF08F01EC1D9FF1FC1DAFF020E86
:100FF000DE18DE10D8A4FFEF07F001EF08F01DEFB8
:1010000008F028C1D9FF29C1DAFFDE04DE10D8A418
:101010000CEF08F00EEF08F01DEF08F028C1D9FF23
:1010200029C1DAFF000EDE6E000EDD6E1EC1D9FF93
:101030001FC1DAFFDE06000EDD5A1AC1D9FF1BC13F
:10104000DAFFDECF75F0DDCF76F0000E786F3C0E64
:10105000776F40EC1AF01CC1D9FF1DC1DAFF000107
:101060007551DE267651DD221AC1D9FF1BC1DAFF88
:10107000DECF75F0DDCF76F0000E786F3C0E776F27
:10108000E4EC1AF01AC1D9FF1BC1DAFF000175C0E8
:10109000DEFF76C0DDFF1CC1D9FF1DC1DAFFDECF48
:1010A00075F0DDCF76F0000E786F3C0E776F40EC78
:1010B0001AF01EC1D9FF1FC1DAFF00017551DE26EB
:1010C0007651DD221CC1D9FF1DC1DAFFDECF75F0DC
:1010D000DDCF76F0000E786F3C0E776FE4EC1AF0FF
:1010E0001CC1D9FF1DC1DAFF000175C0DEFF76C04B
:1010F000DDFF1EC1D9FF1FC1DAFFDECF75F0DDCFE6
:1011000076F0000E786F180E776F40EC1AF022C15F
:10111000D9FF23C1DAFF00017551DE267651DD22A9
:101120001EC1D9FF1FC1DAFFDECF75F0DDCF76F02B
:10113000000E786F180E776F40EC1AF020C1D9FFBF
:1011400021C1DAFF00017551DE267651DD221EC174
:10115000D9FF1FC1DAFFDECF75F0DDCF76F0000ECC
:10116000786F180E776FE4EC1AF01EC1D9FF1FC11B
:10117000DAFF000175C0DEFF76C0DDFF22C1D9FFB6
:1011800023C1DAFFDECF75F0DDCF76F08BC177F0CB
:101190008CC178F040EC1AF024C1D9FF25C1DAFFE8
:1011A00000017551DE267651DD2222C1D9FF23C10F
:1011B000DAFFDECF75F0DDCF76F08BC177F08CC132
:1011C00078F0E4EC1AF022C1D9FF23C1DAFF000164
:1011D00075C0DEFF76C0DDFF20C1D9FF21C1DAFF77
:1011E000DECF75F0DDCF76F0000E786F070E776FEB
:1011F000E4EC1AF020C1D9FF21C1DAFF000175C06B
:10120000DEFF76C0DDFF24C1D9FF25C1DAFFDECFC6
:1012100075F0DDCF76F0000E786F0C0E776F40EC36
:101220001AF026C1D9FF27C1DAFF00017551DE2669
:101230007651DD2224C1D9FF25C1DAFFDECF75F05A
:10124000DDCF76F0000E786F0C0E776FE4EC1AF0BD
:1012500024C1D9FF25C1DAFF000175C0DEFF76C0C9
:10126000DDFF22EE66F011EE2AF0450EDBCFE3FF44
:10127000E806FCE216C100F117C101F1010E0101FF
:10128000026F0E0E036F1EC1D9FF1FC1DAFFDECF42
:1012900004F1DDCF05F11CC1D9FF1DC1DAFFDECF9E
:1012A00006F1DDCF07F11AC1D9FF1BC1DAFFDECF8E
:1012B00008F1DDCF09F14AEC1BF020C1D9FF21C1B3
:1012C000DAFFDECF75F0DDCF76F0000E0001786F2B
:1012D0000A0E776F53EC1DF02A0E000175250101EF
:1012E000706F010E000176210101716F18C100F1CC
:1012F00019C101F1140E026F0E0E036F70C104F1DB
:1013000071C105F122C1D9FF23C1DAFFDECFD4F0CC
:10131000DDCFD5F0010E0001D4250101066F000ECE
:101320000001D5210101076F24C1D9FF25C1DAFFD2
:10133000DECFD6F0DDCFD7F0010E0001D6250101BA
:10134000086F000E0001D7210101096F26C1D9FFE6
:1013500027C1DAFFDECF0AF1DDCF0BF14AEC1BF03B
:101360001EC1D9FF1FC1DAFFDECF16F1DDCF17F1A5
:10137000120042C0D9FF43C0DAFFDECFF6FFDDCF57
:10138000F7FF000EF86E0800F550250AD8A4CBEF41
:1013900009F0CDEF09F0A5EF0BF042C0D9FF43C033
:1013A000DAFFDE2A000EDD22000E0001DD6F000EE6
:1013B000DC6FDCC0E0F0DDC0E1F0DE69DF69000E6B
:1013C000556E000E546E32EF0AF00001E08142C00B
:1013D000D9FF43C0DAFFDE2A000EDD2232EF0AF029
:1013E0000001E083E7EF09F00001E085E7EF09F095
:1013F0000001E087E7EF09F00001E089E7EF09F07D
:10140000000E556E010E546E32EF0AF042C0D9FF45
:1014100043C0DAFFDECFF6FFDDCFF7FF000EF86E38
:101420000800F550466E476A4750000AD8B41BEFD3
:101430000AF000EF0AF04650200AD8B4F8EF09F09D
:10144000030AD8B4FCEF09F0080AD8B4F4EF09F0A5
:10145000060AD8B4E5EF09F01D0AD8B4F0EF09F098
:1014600000EF0AF054505510D8B439EF0AF03BEFB2
:101470000AF006EF0AF00001E0A141EF0AF043EFA5
:101480000AF044EF0AF0E09342C0D9FF43C0DAFF0C
:10149000DECFF6FFDDCFF7FF000EF86E0800F55047
:1014A0002A0AD8A456EF0AF058EF0AF081EF0AF0A2
:1014B00042C0D9FF43C0DAFFDE2A000EDD2244C05D
:1014C000D9FF45C0DAFFDFCF46F0020EDE26DFCFC0
:1014D00047F0000EDD2246C0D9FF47C0DAFFDECF5D
:1014E000DCF0DDCFDDF0DDBF7AEF0AF078EF0AF057
:1014F000C6EF0AF0E081DC6DDD1FD8B0DD2BC6EF52
:101500000AF042C0D9FF43C0DAFFDECF08F0DDCFDA
:1015100009F060EC12F008C0DCF009C0DDF098EFD3
:101520000AF042C0D9FF43C0DAFFDE2A000EDD22F6
:10153000D00E466EFF0E476E42C0D9FF43C0DAFFA1
:10154000DECFF6FFDDCFF7FF000EF86E0800F55096
:10155000486E496A465048264750492249500AE198
:101560000A0E485CD8A0B7EF0AF0BAEF0AF0010EF5
:10157000BBEF0AF0000E566E576A56505710D8A4AB
:10158000C4EF0AF0C6EF0AF091EF0AF042C0D9FFAB
:1015900043C0DAFFDECFF6FFDDCFF7FF000EF86EB7
:1015A0000800F550640AD8B4D8EF0AF0DAEF0AF070
:1015B000EEEF0AF042C0D9FF43C0DAFFDECFF6FFFC
:1015C000DDCFF7FF000EF86E0800F550690AD8A4C9
:1015D000ECEF0AF0EEEF0AF02EEF0BF042C0D9FF6D
:1015E00043C0DAFFDE2A000EDD2244C0D9FF45C029
:1015F000DAFFDFCF46F0020EDE26DFCF47F0000E27
:10160000DD2246C0D9FF47C0DAFFDECF4AF0DDCF8A
:101610004BF0000E4BBEFF0E4C6E4D6E4E6E4F6E7D
:10162000506E516E40C01CF041C01DF04AC01EF00B
:101630004BC01FF04CC020F04DC021F04EC022F036
:101640004FC023F050C024F051C025F03CEC0FF007
:101650001CC040F01DC041F0C2EF0BF042C0D9FFEA
:1016600043C0DAFFDECFF6FFDDCFF7FF000EF86EE6
:101670000800F550730AD8A440EF0BF042EF0BF0CE
:101680006DEF0BF042C0D9FF43C0DAFFDE2A000E37
:10169000DD2244C0D9FF45C0DAFFDFCF46F0020E9D
:1016A000DE26DFCF47F0000EDD2246C0D9FF47C05F
:1016B000DAFFDECF52F0DDCF53F040C00AF041C078
:1016C0000BF052C00CF053C00DF081EC15F00AC0C5
:1016D00040F00BC041F0C2EF0BF042C0D9FF43C055
:1016E000DAFFDECFF6FFDDCFF7FF000EF86E080061
:1016F000F550250AD8A47FEF0BF081EF0BF098EF9F
:101700000BF042C0D9FF43C0DAFFDE2A000EDD2213
:10171000000E026E250E016E40C003F041C004F0C1
:10172000D9EC18F0000E416E010E406EC2EF0BF0C6
:1017300042C0D9FF43C0DAFFDE2A000EDD22000ED0
:10174000416E000E406EC2EF0BF042C0D9FF43C0A5
:10175000DAFFDECFF6FFDDCFF7FF000EF86E0800F0
:10176000F550016E026A40C003F041C004F0D9ECAC
:1017700018F042C0D9FF43C0DAFFDE2A000EDD2296
:1017800092EF0BF01200B6C0D9FFB7C0DAFFDECF80
:10179000F6FFDDCFF7FF000EF86E0800F550250AC2
:1017A000D8A4D5EF0BF0D7EF0BF0ABEF0DF0B6C030
:1017B000D9FFB7C0DAFFDE2A000EDD22000E0001DD
:1017C000DD6F000EDC6FDCC0E0F0DDC0E1F0DE6953
:1017D000DF69000EC96F000EC86F37EF0CF0E081B3
:1017E000B6C0D9FFB7C0DAFFDE2A000EDD2237EF20
:1017F0000CF0E083F0EF0BF0E085F0EF0BF0E0870A
:10180000F0EF0BF0E089F0EF0BF0000EC96F010E66
:10181000C86F37EF0CF0B6C0D9FFB7C0DAFFDECF24
:10182000F6FFDDCFF7FF000EF86E0800F550BA6F37
:10183000BB6BBB51000AD8B420EF0CF005EF0CF0E5
:10184000BA51200AD8B4FFEF0BF0030AD8B402EF64
:101850000CF0080AD8B4FCEF0BF0060AD8B4EFEF8E
:101860000BF01D0AD8B4F9EF0BF005EF0CF0C851DE
:10187000C911D8B43EEF0CF040EF0CF00BEF0CF0B8
:10188000E0A145EF0CF047EF0CF048EF0CF0E093CF
:10189000B6C0D9FFB7C0DAFFDECFF6FFDDCFF7FF66
:1018A000000EF86E0800F5502A0AD8A45AEF0CF082
:1018B0005CEF0CF085EF0CF0B6C0D9FFB7C0DAFFD3
:1018C000DE2A000EDD22B8C0D9FFB9C0DAFFDFCFB3
:1018D000BAF0020EDE26DFCFBBF0000EDD22BAC06A
:1018E000D9FFBBC0DAFFDECFDCF0DDCFDDF0DDBF3E
:1018F0007EEF0CF07CEF0CF0CBEF0CF0E081DC6DB8
:10190000DD1FD8B0DD2BCBEF0CF0B6C0D9FFB7C0D0
:10191000DAFFDECF7CF0DDCF7DF08CEC11F07CC007
:10192000DCF07DC0DDF09CEF0CF0B6C0D9FFB7C095
:10193000DAFFDE2A000EDD22D00E0001BA6FFF0EA4
:10194000BB6FB6C0D9FFB7C0DAFFDECFF6FFDDCF81
:10195000F7FF000EF86E0800F550BC6FBD6BBA5172
:10196000BC27BB51BD23BD510AE10A0EBC5DD8A006
:10197000BCEF0CF0BFEF0CF0010EC0EF0CF0000E4E
:10198000CA6FCB6BCA51CB11D8A4C9EF0CF0CBEF07
:101990000CF095EF0CF0B6C0D9FFB7C0DAFFDECF80
:1019A000F6FFDDCFF7FF000EF86E0800F550640A71
:1019B000D8B4DDEF0CF0DFEF0CF0F3EF0CF0B6C0B5
:1019C000D9FFB7C0DAFFDECFF6FFDDCFF7FF000E9D
:1019D000F86E0800F550690AD8A4F1EF0CF0F3EFA7
:1019E0000CF033EF0DF0B6C0D9FFB7C0DAFFDE2A36
:1019F000000EDD22B8C0D9FFB9C0DAFFDFCFBAF0E0
:101A0000020EDE26DFCFBBF0000EDD22BAC0D9FF0A
:101A1000BBC0DAFFDECFBEF0DDCFBFF0000EBFBF30
:101A2000FF0EC06FC16FC26FC36FC46FC56FB4C00C
:101A300090F0B5C091F0BEC092F0BFC093F0C0C0AE
:101A400094F0C1C095F0C2C096F0C3C097F0C4C076
:101A500098F0C5C099F0CAEC0DF090C0B4F091C0F8
:101A6000B5F0C9EF0DF0B6C0D9FFB7C0DAFFDECFD1
:101A7000F6FFDDCFF7FF000EF86E0800F550730A91
:101A8000D8A445EF0DF047EF0DF072EF0DF0B6C0A2
:101A9000D9FFB7C0DAFFDE2A000EDD22B8C0D9FFB9
:101AA000B9C0DAFFDFCFBAF0020EDE26DFCFBBF01F
:101AB000000EDD22BAC0D9FFBBC0DAFFDECFC6F010
:101AC000DDCFC7F0B4C07EF0B5C07FF0C6C080F0F7
:101AD000C7C081F032EC13F07EC0B4F07FC0B5F027
:101AE000C9EF0DF0B6C0D9FFB7C0DAFFDECFF6FF01
:101AF000DDCFF7FF000EF86E0800F550250AD8A4D8
:101B000084EF0DF086EF0DF09EEF0DF0B6C0D9FF1B
:101B1000B7C0DAFFDE2A000EDD22000E766F250E3A
:101B2000756FB4C077F0B5C078F0A9EC17F0000E6F
:101B30000001B56F010EB46FC9EF0DF0B6C0D9FF4B
:101B4000B7C0DAFFDE2A000EDD22000EB56F000EF0
:101B5000B46FC9EF0DF0B6C0D9FFB7C0DAFFDECF62
:101B6000F6FFDDCFF7FF000EF86E0800F55000011C
:101B7000756F766BB4C077F0B5C078F0A9EC17F04C
:101B8000B6C0D9FFB7C0DAFFDE2A000EDD2297EF1C
:101B90000DF0120092C0AAF093C0ABF094C0ACF06C
:101BA00095C0ADF096C0AEF097C0AFF098C0B0F061
:101BB00099C0B1F00001B1BFE0EF0DF0E3EF0DF01F
:101BC000010EE4EF0DF0000EA86FA96BA851A9114A
:101BD000D8B4EDEF0DF0EFEF0DF0FFEF0DF0B11F0A
:101BE000B01FAF1FAE1FAD1FAC1FAB1FAA6D000E05
:101BF000AB23AC23AD23AE23AF23B023B123DFBF90
:101C000004EF0EF006EF0EF007EF0EF0E093DFBFEB
:101C100014EF0EF0DF5106E1DE05D8B012EF0EF042
:101C200014EF0EF01AEF0EF0000EA56F010EA46F68
:101C30001EEF0EF0DEC0A4F0DFC0A5F0DCC0A6F001
:101C4000DDC0A7F0A851A911D8A429EF0EF02BEF01
:101C50000EF032EF0EF0E0A530EF0EF032EF0EF0A6
:101C600035EF0EF0A607D8A0A707000EB36F1F0E22
:101C7000B26F000E0201E36FBBEF0EF0B207D8A007
:101C8000B307C40EB225D96E020EB321DA6EAAC014
:101C900075F0ABC076F0ACC077F0ADC078F0AEC0F8
:101CA00079F0AFC07AF0B0C07BF0B1C07CF00A0E22
:101CB0007D6F000E7E6F000E7F6F000E806F000E36
:101CC000816F000E826F000E836F000E846F44ECF4
:101CD00016F075C09AF076C09BF077C09CF078C083
:101CE0009DF079C09EF07AC09FF07BC0A0F07CC0D0
:101CF000A1F09AC087F09CC088F030EC1CF0000185
:101D00008751300FDF6EA407D8A0A507A607D8A07B
:101D1000A707AAC075F0ABC076F0ACC077F0ADC035
:101D200078F0AEC079F0AFC07AF0B0C07BF0B1C04F
:101D30007CF00A0E7D6F000E7E6F000E7F6F000E2E
:101D4000806F000E816F000E826F000E836F000E99
:101D5000846FF8EC13F075C0AAF076C0ABF077C0D2
:101D6000ACF078C0ADF079C0AEF07AC0AFF07BC017
:101D7000B0F07CC0B1F00001B3BFC7EF0EF0B351BB
:101D800008E1B205D8A0C7EF0EF0C9EF0EF0F9EFE9
:101D90000EF0AA51AB11AC11AD11AE11AF11B011D3
:101DA000B111D8A4D6EF0EF0D8EF0EF03EEF0EF042
:101DB000A5BFE5EF0EF0A55106E1A405D8B0E3EF0D
:101DC0000EF0E5EF0EF03EEF0EF0A7BFF0EF0EF0D5
:101DD000A75108E1A605D8A0F0EF0EF0F2EF0EF043
:101DE000F9EF0EF0E0B3F7EF0EF0F9EF0EF03EEF83
:101DF0000EF0A851A911D8A400EF0FF002EF0FF0D8
:101E000009EF0FF0E0A507EF0FF009EF0FF027EF54
:101E10000FF0B207D8A0B307A851A911D8A413EFA7
:101E20000FF015EF0FF01BEF0FF0000EA36F2B0E4E
:101E3000A26F1FEF0FF0000EA36F2D0EA26FC40E46
:101E4000B225D96E020EB321DA6EA2C0DFFF90C0B8
:101E500085F091C086F0C40EB225876F020EB321C3
:101E6000886FA6C089F0A7C08AF00FEC18F085C073
:101E700090F086C091F012001EC036F01FC037F0FF
:101E800020C038F021C039F022C03AF023C03BF026
:101E900024C03CF025C03DF03DBE51EF0FF054EFA3
:101EA0000FF0010E55EF0FF0000E346E356A34500E
:101EB0003510D8B45EEF0FF060EF0FF070EF0FF059
:101EC0003D1E3C1E3B1E3A1E391E381E371E366C08
:101ED000000E3722382239223A223B223C223D2270
:101EE0000001DFBF76EF0FF078EF0FF079EF0FF022
:101EF000E093DFBF86EF0FF0DF5106E1DE05D8B0DB
:101F000084EF0FF086EF0FF08CEF0FF0000E316EC4
:101F1000010E306E90EF0FF0DEC030F0DFC031F018
:101F2000DCC032F0DDC033F034503510D8A49BEF64
:101F30000FF09DEF0FF0A4EF0FF0E0A5A2EF0FF070
:101F4000A4EF0FF0A7EF0FF03206D8A03306000E73
:101F50003F6E1F0E3E6E000E0201E36F2CEF10F07D
:101F60003E06D8A03F06C40E3E24D96E020E3F2086
:101F7000DA6E36C001F037C002F038C003F039C065
:101F800004F03AC005F03BC006F03CC007F03DC08D
:101F900008F00A0E096E000E0A6E000E0B6E000E9F
:101FA0000C6E000E0D6E000E0E6E000E0F6E000E0B
:101FB000106EF7EC16F001C026F002C027F003C047
:101FC00028F004C029F005C02AF006C02BF007C095
:101FD0002CF008C02DF026C013F028C014F071ECCE
:101FE0001CF01350300FDF6E3006D8A031063206D9
:101FF000D8A0330636C001F037C002F038C003F075
:1020000039C004F03AC005F03BC006F03CC007F010
:102010003DC008F00A0E096E000E0A6E000E0B6E2F
:10202000000E0C6E000E0D6E000E0E6E000E0F6E8A
:10203000000E106EBDEC14F001C036F002C037F097
:1020400003C038F004C039F005C03AF006C03BF0D8
:1020500007C03CF008C03DF03FBE37EF10F03F50E6
:1020600008E13E04D8A037EF10F039EF10F06AEF26
:1020700010F036503710381039103A103B103C1021
:102080003D10D8A446EF10F048EF10F0B0EF0FF07D
:1020900031BE55EF10F0315006E13004D8B053EFA7
:1020A00010F055EF10F0B0EF0FF033BE60EF10F00E
:1020B000335008E13204D8A060EF10F062EF10F066
:1020C0006AEF10F00001E0B368EF10F06AEF10F073
:1020D000B0EF0FF034503510D8A471EF10F073EF5B
:1020E00010F07BEF10F00001E0A579EF10F07BEF2E
:1020F00010F099EF10F03E06D8A03F06345035108E
:10210000D8A485EF10F087EF10F08DEF10F0000EDF
:102110002F6E2B0E2E6E91EF10F0000E2F6E2D0EE7
:102120002E6EC40E3E24D96E020E3F20DA6E2EC0F3
:10213000DFFF1CC011F01DC012F0C40E3E24136E50
:10214000020E3F20146E32C015F033C016F03EEC84
:1021500019F011C01CF012C01DF01200A1EC19F012
:10216000B5EC1DF08FEC1DF0CDEC1DF067EC1DF013
:10217000868E0E01B48F88968086010E0001E26F74
:1021800021EE8DF012EE56F00F0EDBCFE3FFE806E6
:10219000FCE256C29FF157C2A0F1000E0201516F3E
:1021A000000E506FE2C052F20201505101019F191E
:1021B0000BE1020151510101A019D8B4E2EF10F076
:1021C000E4EF10F0D4EF10F0020152510001E219D7
:1021D000D8B4EDEF10F0EFEF10F00AEF11F0E2518C
:1021E000D8A4F5EF10F0F7EF10F00AEF11F0000EA1
:1021F0000201596F000E586F000E5B6F0C0E5A6F84
:10220000D89001019E310001D86F01019D319F6F6F
:10221000D8C0A0F1000E0101166F020E176F280E34
:10222000186F020E196F9F0E1A6F010E1B6F580E5A
:102230001C6F020E1D6F5A0E1E6F020E1F6F5C0E7A
:10224000206F020E216F5E0E226F020E236F600E52
:10225000246F020E256F620E266F020E276F640E2A
:10226000286F020E296F17EC07F016C154F217C140
:1022700055F2000E0201536F54515511D8B443EF7B
:1022800011F045EF11F050EF11F0555109E1060E34
:10229000545DD8A04EEF11F050EF11F05CEF11F04B
:1022A0000001E251D8A457EF11F059EF11F05CEFA3
:1022B00011F0010E0201536F020153B102D080965A
:1022C00001D0808654C275F055C276F074EC18F0D7
:1022D0009FC150F2A0C151F2E2C052F2010E51EC86
:1022E0001CF0000E0001786F020E796FE9EC1CF013
:1022F000020E51EC1CF0280E0001786F020E796F6F
:10230000E9EC1CF0000E0001766F020E3CEC1DF0B3
:10231000D4EF10F06DEF00F0000E00018A6F000E98
:10232000896F000E836F000E826F99EF11F07C4B66
:102330007D2B010E886F7CC0F6FF7DC0F7FF000E7D
:10234000F86E0800F550200AD8B4A9EF11F0ABEFF1
:1023500011F0CAEF11F0F70E7E6FFF0E7F6F7CC099
:10236000F6FF7DC0F7FF000EF86E0800F550806F95
:10237000816B7E5180277F518123815109E1050EB8
:10238000805DD8A0C6EF11F0C8EF11F0CAEF11F0D0
:10239000000E886F88C084F0856B84518511D8A4A5
:1023A000D4EF11F0D6EF11F097EF11F0E0EF11F04C
:1023B000000E836F010E826F7C4B7D2B1AEF12F0A3
:1023C0007CC0F6FF7DC0F7FF000EF86E0800F550E8
:1023D0007E6F7F6B7F51000AD8B4F1EF11F01AEFD6
:1023E00012F07E512B0AD8B4DCEF11F0060AD8B4F3
:1023F000D8EF11F01AEF12F089C075F08AC076F0AC
:10240000000E786F0A0E776F53EC1DF07CC0F6FF5C
:102410007DC0F7FF000EF86E0800F5500001755FF3
:10242000000E765B300E7525896F000E76218A6F5F
:10243000DCEF11F0D00E7E6FFF0E7F6F7CC0F6FFD9
:102440007DC0F7FF000EF86E0800F550806F816BBD
:102450007E5180277F51812381510AE10A0E805DE0
:10246000D8A035EF12F038EF12F0010E39EF12F06C
:10247000000E866F876B86518711D8A442EF12F049
:1024800044EF12F0FCEF11F082518311D8A44BEF0E
:1024900012F04DEF12F05BEF12F089C07EF08AC0AF
:1024A0007FF07E1F7F1F7E4B7F2B7EC07CF07FC026
:1024B0007DF05FEF12F089C07CF08AC07DF01200E1
:1024C000000E166E000E156E000E0F6E000E0E6ED4
:1024D0006CEF12F0084A092A010E146E08C0F6FFCC
:1024E00009C0F7FF000EF86E0800F550200AD8B4B6
:1024F0007CEF12F07EEF12F09DEF12F0F70E0A6EF5
:10250000FF0E0B6E08C0F6FF09C0F7FF000EF86E55
:102510000800F5500C6E0D6A0A500C260B500D2267
:102520000D5009E1050E0C5CD8A099EF12F09BEF5D
:1025300012F09DEF12F0000E146E14C010F0116A2C
:1025400010501110D8A4A7EF12F0A9EF12F06AEF03
:1025500012F0B3EF12F0000E0F6E010E0E6E084A6D
:10256000092AECEF12F008C0F6FF09C0F7FF000ED1
:10257000F86E0800F5500A6E0B6A0B50000AD8B4CA
:10258000C4EF12F0ECEF12F00A502B0AD8B4AFEF00
:1025900012F0060AD8B4ABEF12F0ECEF12F015C04F
:1025A00001F016C002F0000E046E0A0E036EA2ECDB
:1025B0001DF008C0F6FF09C0F7FF000EF86E080016
:1025C000F550015E000E025A300E0124156E000E09
:1025D0000220166EAFEF12F0D00E0A6EFF0E0B6ED9
:1025E00008C0F6FF09C0F7FF000EF86E0800F550AE
:1025F0000C6E0D6A0A500C260B500D220D500AE18C
:102600000A0E0C5CD8A007EF13F00AEF13F0010ECE
:102610000BEF13F0000E126E136A12501310D8A4B1
:1026200014EF13F016EF13F0CFEF12F00E500F105F
:10263000D8A41DEF13F01FEF13F02DEF13F015C00A
:102640000AF016C00BF00A1E0B1E0A4A0B2A0AC01B
:1026500008F00BC009F031EF13F015C008F016C0F8
:1026600009F0120020EEE3F010EE83F0060EDBCF4F
:10267000E3FFE806FCE280C08EF081C08FF000012D
:102680008E518F11D8A447EF13F049EF13F04DEF9F
:1026900013F0830E8E6F000E8F6F8EC075F08FC09B
:1026A00076F0AFEC1CF075C092F076C093F0DEC00F
:1026B00090F0DFC091F0000191BF61EF13F063EF84
:1026C00013F078EF13F09251905D9151800A826F70
:1026D0009351800A8259D8A070EF13F072EF13F073
:1026E00074EF13F078EF13F090C092F091C093F074
:1026F00092C090F093C091F0DCC08CF0DDC08DF002
:10270000E0B185EF13F087EF13F0A5EF13F096EF2C
:1027100013F0000E766F200E756F7EC077F07FC0CD
:1027200078F0A9EC17F00001924B932B8C51925D3D
:102730009351800A826F8D51800A8259D8A0A3EFED
:1027400013F0A5EF13F089EF13F0000E8B6F000E5E
:102750008A6FBFEF13F08EC0D9FF8FC0DAFFDF5052
:10276000826F8251756F766B7EC077F07FC078F094
:10277000A9EC17F000018E4B8F2B8A4B8B2B9051BD
:102780008A5D8B51800A826F9151800A8259D8A04C
:10279000CCEF13F0CEEF13F0ABEF13F0E0A1D3EFDB
:1027A00013F0D5EF13F0F3EF13F0E4EF13F0000E96
:1027B000766F200E756F7EC077F07FC078F0A9EC41
:1027C00017F00001924B932B8C51925D9351800A2C
:1027D000826F8D51800A8259D8A0F1EF13F0F3EF88
:1027E00013F0D7EF13F092C07EF093C07FF0120089
:1027F000000E0001866F84BF02EF14F000EF14F0AA
:1028000014EF14F0841F831F821F811F801F7F1FFE
:102810007E1F7D6D000E7E237F23802381238223F4
:1028200083238423010E866F7CBF1BEF14F019EF06
:1028300014F02DEF14F07C1F7B1F7A1F791F781F77
:10284000771F761F756D000E762377237823792303
:102850007A237B237C23010E861B20EE87F0070E54
:10286000DE6AE806FDE27D517E117F118011811143
:10287000821183118411D8B440EF14F042EF14F0A8
:1028800094EF14F0010E856F50EF14F0D8907D375F
:102890007E377F3780378137823783378437852B80
:1028A00084AF55EF14F057EF14F046EF14F0D890C2
:1028B0008737883789378A378B378C378D378E370C
:1028C0007D51755D7E5176597F5177598051785988
:1028D0008151795982517A5983517B5984517C595C
:1028E000D8A075EF14F077EF14F088EF14F07D5155
:1028F000755F7E51765B7F51775B8051785B81514C
:10290000795B82517A5B83517B5B84517C5B8781ED
:10291000D890843383338233813380337F337E3363
:102920007D33852F57EF14F08651D8B49AEF14F009
:102930009CEF14F0ACEF14F08E1F8D1F8C1F8B1FBB
:102940008A1F891F881F876D000E882389238A2389
:102950008B238C238D238E2387C075F088C076F05F
:1029600089C077F08AC078F08BC079F08CC07AF09B
:102970008DC07BF08EC07CF01200000E126E10BE77
:10298000C6EF14F0C4EF14F0D8EF14F0101E0F1EB1
:102990000E1E0D1E0C1E0B1E0A1E096C000E0A22B6
:1029A0000B220C220D220E220F221022010E126E7B
:1029B00008BEDFEF14F0DDEF14F0F1EF14F0081EA5
:1029C000071E061E051E041E031E021E016C000EBD
:1029D0000222032204220522062207220822010ED7
:1029E000121A20EE13F0070EDE6AE806FDE2095027
:1029F0000A100B100C100D100E100F101010D8B480
:102A000004EF15F006EF15F058EF15F0010E116EFA
:102A100014EF15F0D89009360A360B360C360D3601
:102A20000E360F361036112A10AE19EF15F01BEFC7
:102A300015F00AEF15F0D890133614361536163601
:102A40001736183619361A360950015C0A500258E2
:102A50000B5003580C5004580D5005580E50065892
:102A60000F50075810500858D8A039EF15F03BEF19
:102A700015F04CEF15F00950015E0A50025A0B5048
:102A8000035A0C50045A0D50055A0E50065A0F5056
:102A9000075A1050085A1380D89010320F320E3255
:102AA0000D320C320B320A320932112E1BEF15F0A7
:102AB0001250D8B45EEF15F060EF15F070EF15F01E
:102AC0001A1E191E181E171E161E151E141E136C14
:102AD000000E1422152216221722182219221A2259
:102AE00013C001F014C002F015C003F016C004F0CA
:102AF00017C005F018C006F019C007F01AC008F09A
:102B0000120020EEE3F010EE0FF0060EDBCFE3FF35
:102B1000E806FCE20CC01AF00DC01BF01A501B10A6
:102B2000D8A495EF15F097EF15F09BEF15F00F0E69
:102B30001A6E000E1B6E1AC001F01BC002F021ECD1
:102B40001DF001C01EF002C01FF0DEC01CF0DFC08F
:102B50001DF01DBEAEEF15F0B0EF15F0C5EF15F08E
:102B60001E501C5C1D50800A0E6E1F50800A0E58AD
:102B7000D8A0BDEF15F0BFEF15F0C1EF15F0C5EF10
:102B800015F01CC01EF01DC01FF01EC01CF01FC0A1
:102B90001DF0DCC018F0DDC019F00001E0B1D3EF8A
:102BA00015F0D5EF15F0F2EF15F0E3EF15F0000E8C
:102BB000026E200E016E0AC003F00BC004F0D9ECC7
:102BC00018F01E4A1F2A18501E5C1F50800A0E6EF5
:102BD0001950800A0E58D8A0F0EF15F0F2EF15F05A
:102BE000D7EF15F0000E176E000E166E0BEF16F0F5
:102BF0001AC0D9FF1BC0DAFFDF500E6E0E50016EF7
:102C0000026A0AC003F00BC004F0D9EC18F01A4AAB
:102C10001B2A164A172A1C50165C1750800A0E6E83
:102C20001D50800A0E58D8A018EF16F01AEF16F0B3
:102C3000F8EF15F00001E0A120EF16F022EF16F0FA
:102C40003FEF16F030EF16F0000E026E200E016E10
:102C50000AC003F00BC004F0D9EC18F01E4A1F2A7A
:102C600018501E5C1F50800A0E6E1950800A0E58B4
:102C7000D8A03DEF16F03FEF16F024EF16F01EC07F
:102C80000AF01FC00BF01200000E0001866F7CBF1F
:102C90004EEF16F04CEF16F060EF16F07C1F7B1F26
:102CA0007A1F791F781F771F761F756D000E7623A8
:102CB0007723782379237A237B237C23010E866F65
:102CC00084BF67EF16F065EF16F077EF16F0841FFC
:102CD000831F821F811F801F7F1F7E1F7D6D000E3F
:102CE0007E237F23802381238223832384237D519A
:102CF0007E117F1180118111821183118411D8B44A
:102D000084EF16F086EF16F0CEEF16F0010E856F09
:102D100094EF16F0D8907D377E377F378037813734
:102D2000823783378437852B84AF99EF16F09BEF7A
:102D300016F08AEF16F07D51755D7E5176597F5100
:102D40007759805178598151795982517A598351F3
:102D50007B5984517C59D8A0B0EF16F0B2EF16F031
:102D6000C2EF16F07D51755F7E51765B7F51775BC8
:102D70008051785B8151795B82517A5B83517B5BB7
:102D800084517C5BD89084338333823381338033A6
:102D90007F337E337D33852F9BEF16F08651D8B479
:102DA000D4EF16F0D6EF16F0E6EF16F07C1F7B1F7F
:102DB0007A1F791F781F771F761F756D000E762397
:102DC0007723782379237A237B237C2375C075F0BE
:102DD00076C076F077C077F078C078F079C079F077
:102DE0007AC07AF07BC07BF07CC07CF01200000ED1
:102DF000126E08BE00EF17F0FEEF16F012EF17F09C
:102E0000081E071E061E051E041E031E021E016C60
:102E1000000E022203220422052206220722082293
:102E2000010E126E10BE19EF17F017EF17F029EF11
:102E300017F0101E0F1E0E1E0D1E0C1E0B1E0A1E5E
:102E4000096C000E0A220B220C220D220E220F22E8
:102E5000102209500A100B100C100D100E100F103C
:102E60001010D8B436EF17F038EF17F080EF17F0E6
:102E7000010E116E46EF17F0D89009360A360B3660
:102E80000C360D360E360F361036112A10AE4BEFBB
:102E900017F04DEF17F03CEF17F00950015C0A50A6
:102EA00002580B5003580C5004580D5005580E5042
:102EB00006580F50075810500858D8A062EF17F066
:102EC00064EF17F074EF17F00950015E0A50025AD0
:102ED0000B50035A0C50045A0D50055A0E50065A06
:102EE0000F50075A1050085AD89010320F320E3235
:102EF0000D320C320B320A320932112E4DEF17F01F
:102F00001250D8B486EF17F088EF17F098EF17F04B
:102F1000081E071E061E051E041E031E021E016C4F
:102F2000000E022203220422052206220722082282
:102F300001C001F002C002F003C003F004C004F0BD
:102F400005C005F006C006F007C007F008C008F08D
:102F50001200000177517811D8B4B1EF17F0B3EF38
:102F600017F0BCEF17F077517811D8A4BAEF17F02B
:102F7000BCEF17F0C1EF17F07551E9EC1DF00EEF43
:102F800018F020EE04F07751D9267851DA22DE507D
:102F9000DE10D8B4CEEF17F0D0EF17F0EBEF17F04C
:102FA00020EE04F07751D9267851DA2210EE02F0A3
:102FB0007751E1267851E222DE50E65CE650800A45
:102FC0007D6FDE50800A7D59D8B0E9EF17F0EBEF46
:102FD00017F00EEF18F020EE02F07751D926785155
:102FE000DA22DECF79F0DDCF7AF077C0D9FF78C072
:102FF000DAFFDECF7BF0DDCF7CF079517B25D96E17
:103000007A517C21DA6E75C0DFFF20EE02F0775135
:10301000D9267851DA22DE2A000EDD2212000001C4
:10302000E0A115EF18F017EF18F021EF18F087C0A6
:103030007EF088C07FF085C080F086C081F0C7EC4C
:103040001BF000018ABF27EF18F029EF18F02FEFCF
:1030500018F089C08EF08AC08FF033EF18F0000EA0
:103060008F6F000E8E6F000E8D6F000E8C6F46EF0F
:1030700018F0000E766F200E756F85C077F086C051
:1030800078F0A9EC17F000018C4B8D2B8E518C5DE4
:103090008D51800A8B6F8F51800A8B59D8A053EFC6
:1030A00018F055EF18F039EF18F0E0B15AEF18F0BA
:1030B0005CEF18F066EF18F087C07EF088C07FF0F4
:1030C00085C080F086C081F0C7EC1BF087C075F02A
:1030D00088C076F0AFEC1CF000018E517525856F2D
:1030E0008F517621866F1200000175A17AEF18F0DA
:1030F0007CEF18F07FEF18F07F8080EF18F07F9062
:1031000075A385EF18F087EF18F08AEF18F07F822B
:103110008BEF18F07F9275A590EF18F092EF18F0F2
:1031200095EF18F0798496EF18F0799475A79BEFD6
:1031300018F09DEF18F0A0EF18F07E8CA1EF18F0BA
:103140007E9C75A9A6EF18F0A8EF18F0ABEF18F069
:103150007988ACEF18F0799875ABB1EF18F0B3EF50
:1031600018F0B6EF18F0798AB7EF18F0799A75ADC4
:10317000BCEF18F0BEEF18F0C1EF18F07E80C2EF80
:1031800018F07E9075AFC7EF18F0C9EF18F0CCEFCC
:1031900018F07A80CDEF18F07A9076A1D2EF18F07F
:1031A000D4EF18F0D7EF18F07A82D8EF18F07A92AF
:1031B000120003500410D8B4E0EF18F0E2EF18F05A
:1031C000EBEF18F003500410D8A4E9EF18F0EBEF80
:1031D00018F0F0EF18F00150EAEC1DF03DEF19F097
:1031E00020EE04F00350D9260450DA22DE50DE101F
:1031F000D8B4FDEF18F0FFEF18F01AEF19F020EE39
:1032000004F00350D9260450DA2210EE02F00350E5
:10321000E1260450E222DE50E65CE650800A096EA8
:10322000DE50800A0958D8B018EF19F01AEF19F0DB
:103230003DEF19F020EE02F00350D9260450DA22B7
:10324000DECF05F0DDCF06F003C0D9FF04C0DAFF02
:10325000DECF07F0DDCF08F005500724D96E065009
:103260000820DA6E01C0DFFF20EE02F00350D926FD
:103270000450DA22DE2A000EDD2212000001E0A155
:1032800044EF19F046EF19F050EF19F013C00AF0AF
:1032900014C00BF011C00CF012C00DF00EEC1CF0BD
:1032A00016BE55EF19F057EF19F05DEF19F015C084
:1032B0001AF016C01BF061EF19F0000E1B6E000E25
:1032C0001A6E000E196E000E186E73EF19F0000ED4
:1032D000026E200E016E11C003F012C004F0D9EC92
:1032E00018F0184A192A1A50185C1950800A176EDB
:1032F0001B50800A1758D8A080EF19F082EF19F000
:1033000067EF19F00001E0B188EF19F08AEF19F0CA
:1033100094EF19F013C00AF014C00BF011C00CF0B8
:1033200012C00DF00EEC1CF013C001F014C002F03E
:1033300021EC1DF01A500124116E1B500220126E58
:103340001200839C839482968294859685927B9CBE
:103350007B947A967A947D967D92050E0001796F22
:103360000F0E786FF10EE82EFED7782FFCD7792F4D
:10337000FAD7030E7BEC1AF0D50EE82EFED700F03C
:10338000000E0001766F280E3CEC1DF0D50EE82EE5
:10339000FED700F0000E0001766F280E3CEC1DF009
:1033A000D50EE82EFED700F0000E0001766F0F0E4E
:1033B0003CEC1DF0D50EE82EFED700F0000E00010B
:1033C000766F010E3CEC1DF0200E0001786FC90EE7
:1033D000E82EFED7782FFCD700D0000E0001766FC4
:1033E000050E3CEC1DF0000E0001766F0C0E3CEC5F
:1033F0001DF01200D60EF66E370EF76E000EF86E48
:1034000002EE66F010EE46F00900F5CFEEFFE55053
:10341000E150FAE1AC0EF66E3B0EF76E000EF86E60
:1034200001EE8DF010EE10F00900F5CFEEFFE55043
:10343000E150FAE1CA0EF66E3B0EF76E000EF86E22
:1034400000EEE3F010EE07F00900F5CFEEFFE550D7
:10345000E150FAE102EEACF0380EEE6AE806FDE16A
:103460000101A06B9F6B9E6B9D6B00EEDAF0090E65
:10347000EE6AE806FDE15E905E920001AEEF10F0AC
:10348000000E00017B6F000E7A6F77517811D8B46F
:103490004CEF1AF04EEF1AF076EF1AF0010E796F3A
:1034A00056EF1AF0D89077377837792B78AF5BEFF3
:1034B0001AF05DEF1AF052EF1AF0D8907A377B3796
:1034C0007751755D78517659D8A069EF1AF06BEF96
:1034D0001AF070EF1AF07751755F7851765B7A8148
:1034E000D89078337733792F5DEF1AF07AC075F082
:1034F0007BC076F012000001756F000175A783EFA5
:103500001AF085EF1AF088EF1AF07D8289EF1AF031
:103510007D9275A58EEF1AF090EF1AF093EF1AF0E6
:103520007D8694EF1AF07D9675A399EF1AF09BEFC4
:103530001AF09EEF1AF07A849FEF1AF07A9475A130
:10354000A4EF1AF0A6EF1AF0A9EF1AF07A86AAEF04
:103550001AF07A96DEEC1DF01A0EE82EFED700D097
:103560001200CEC0D2F0CFC0D3F0000E0001DB6F4E
:10357000000EDA6FCFEF1AF0CCC0B4F0CDC0B5F0CA
:10358000D20EB66F000EB76FD0C0B8F0D1C0B9F090
:10359000C3EC0BF00001B451DA27B551DB23D2C0E4
:1035A000F6FFD3C0F7FF000EF86E0800F5500009D3
:1035B000D8A4DDEF1AF0DFEF1AF0BCEF1AF0DAC092
:1035C000CCF0DBC0CDF01200000177517811D8B4F7
:1035D000ECEF1AF0EEEF1AF012EF1BF0010E796F1C
:1035E000F6EF1AF0D89077377837792B78AFFBEF72
:1035F0001AF0FDEF1AF0F2EF1AF07751755D78517D
:103600007659D8A006EF1BF008EF1BF00CEF1BF06B
:103610007751755F7851765BD89078337733792F0F
:10362000FDEF1AF075C075F076C076F012005AC042
:1036300060F05BC061F0000E0001DB6F000EDA6F1E
:1036400035EF1BF058C040F059C041F0600E426E9B
:10365000000E436E5CC044F05DC045F0B9EC09F06B
:1036600040500001DA274150DB2360C0F6FF61C003
:10367000F7FF000EF86E0800F5500009D8A443EFDC
:103680001BF045EF1BF022EF1BF0DAC058F0DBC057
:1036900059F01200040E01010E6F010E0F6F00C1F0
:1036A00010F101C111F1000E136F000E126F000E28
:1036B000156F000E146F100E0001CC6F010ECD6F50
:1036C00002C1CEF003C1CFF00E0ED06F010ED16F4C
:1036D000B1EC1AF0010112510025D96E13510121EC
:1036E000DA6E000EDF6E1200010E00017B6F200EFD
:1036F00075197611D8B47FEF1BF081EF1BF09AEFAC
:103700001BF0F70E776FFF0E786F75C079F076C0FB
:103710007AF07751792778517A237A5109E1050EA9
:10372000795DD8A096EF1BF098EF1BF09AEF1BF095
:10373000000E7B6F7BC075F0766B1200010E076E7A
:10374000200E01180210D8B4A8EF1BF0AAEF1BF04E
:10375000C3EF1BF0F70E036EFF0E046E01C005F001
:1037600002C006F00350052604500622065009E167
:10377000050E055CD8A0BFEF1BF0C1EF1BF0C3EF37
:103780001BF0000E076E07C001F0026A1200000E67
:103790000001846F000E836FDAEF1BF082C075F0BA
:1037A000766B80C077F081C078F0A9EC17F000014B
:1037B000834B842B83517E25D96E84517F21DA6E11
:1037C000DF50826F8251D8A4E8EF1BF0EAEF1BF0C4
:1037D000CEEF1BF012004D6F6E00000000000000E5
:1037E000547565000000000000005765640000008B
:1037F00000000000546875000000000000004672E0
:103800006900000000000000536174000000000027
:10381000000053756E00000000000000000E106EE6
:10382000000E0F6E1FEF1CF00EC001F0026A0CC0FC
:1038300003F00DC004F0D9EC18F00F4A102A0F5015
:103840000A24D96E10500B20DA6EDF500E6E0E5027
:10385000D8A42DEF1CF02FEF1CF014EF1CF0120079
:10386000000188BF3EEF1CF0885106E18705D8B003
:103870003CEF1CF03EEF1CF04CEF1CF087C089F0D1
:1038800088C08AF0891F8A1F894B8A2B89C087F0DC
:103890008AC088F050EF1CF087C087F088C088F09D
:1038A00012000001786F00017805D8A45AEF1CF0CF
:1038B0005CEF1CF061EF1CF0000E766F800E3CECAC
:1038C0001DF0020E00017819D8A469EF1CF06BEF0F
:1038D0001CF070EF1CF0000E766FC00E3CEC1DF07B
:1038E000120014BE7EEF1CF0145006E11304D8B091
:1038F0007CEF1CF07EEF1CF08CEF1CF013C015F079
:1039000014C016F0151E161E154A162A15C013F0FF
:1039100016C014F090EF1CF013C013F014C014F094
:1039200012000E0133AB97EF1CF099EF1CF0ADEFD6
:103930001CF0339B01019F4BA02BEE0ED46EA40E06
:10394000D36E0001E251D8B4A8EF1CF0AAEF1CF02E
:10395000ADEF1CF001019D4B9E2B5E92110075C0D6
:1039600077F076C078F0B8EF1CF00001754B762B3D
:1039700075C0D9FF76C0DAFFDF50D8A4C2EF1CF0C3
:10398000C4EF1CF0B5EF1CF000017751755D756F49
:1039900078517659766F1200D00E0001776FFF0EC6
:1039A000786F75C079F076C07AF0775179277851C1
:1039B0007A237A510AE10A0E795DD8A0E2EF1CF071
:1039C000E5EF1CF0010EE6EF1CF0000E756F766B54
:1039D0001200F8EF1CF0010E0001766F78C0D9FFDD
:1039E00079C0DAFFDF503CEC1DF00001784B792BF9
:1039F00078C0D9FF79C0DAFFDF50D8A402EF1DF0FC
:103A000004EF1DF0EBEF1CF01200D00E036EFF0E62
:103A1000046E01C005F002C006F0035005260450F4
:103A2000062206500AE10A0E055CD8A01AEF1DF026
:103A30001DEF1DF0010E1EEF1DF0000E016E026A5B
:103A4000120001C003F002C004F029EF1DF0014A8A
:103A5000022A01C0D9FF02C0DAFFDF50D8A433EF39
:103A60001DF035EF1DF027EF1DF00350015C016ED6
:103A700004500258026E12000001776F000176B107
:103A800002D07B9C01D07B8C000177390F0B7BEC43
:103A90001AF0000177510F0B7BEC1AF0A00E00D04A
:103AA000E82EFDD71200000175517703F3CF79F0AE
:103AB000F4CF7AF075517803F3507A277651770373
:103AC000F3507A2779C075F07AC076F01200868EAE
:103AD0000E01B48FD251F80B0309D26FD351F80BFA
:103AE0000509D36FD083D089D183D181C3EC1DF078
:103AF0000E01D08F1200640E0001666F000E676F1A
:103B0000000E586E000E596E62C05AF063C05BF032
:103B1000660E5C6E000E5D6E17EC1BF01200879057
:103B200087928194869C8198819A869082908292D5
:103B30007F907F9279947E9C7998799A7E907A9002
:103B40007A92120001500302F3CF05F0F4CF06F091
:103B500001500402F350062602500302F3500626D9
:103B600005C001F006C002F01200D6501F0B40093C
:103B7000D66ED688F00ED616D588EE0ED46EA40E6C
:103B8000D36ED58E1200F30E0E01C617C691C75123
:103B9000E00B1B09C76FC68F1200F28CF28A0E0170
:103BA0002B81298B21911F8BF28E120000000000C7
:103BB0000000000000000000E50700007B841A0EF2
:103BC000E82EFED700D07B941200286E756C6C290D
:013BD00000F4
:043BD20012001200CB
:020000040020DA
:10000000FF0FFF0FFF0FFF0FFF0FFF0FFF0FFF0F80
:020000040030CA
:0C000000AAFFFFFF9FFFFFFFFFFFFFFFB5
:00000001FF
